{
  "contractName": "EventManagement",
  "abi": [
    {
      "inputs": [],
      "stateMutability": "nonpayable",
      "type": "constructor"
    },
    {
      "inputs": [
        {
          "internalType": "string",
          "name": "",
          "type": "string"
        }
      ],
      "name": "events",
      "outputs": [
        {
          "internalType": "uint256",
          "name": "price",
          "type": "uint256"
        },
        {
          "internalType": "uint256",
          "name": "totalTickets",
          "type": "uint256"
        },
        {
          "internalType": "uint256",
          "name": "ticketsPurchased",
          "type": "uint256"
        },
        {
          "internalType": "uint256",
          "name": "eventDate",
          "type": "uint256"
        }
      ],
      "stateMutability": "view",
      "type": "function",
      "constant": true
    },
    {
      "inputs": [
        {
          "internalType": "string",
          "name": "_name",
          "type": "string"
        }
      ],
      "name": "showEventPrice",
      "outputs": [
        {
          "internalType": "uint256",
          "name": "",
          "type": "uint256"
        }
      ],
      "stateMutability": "view",
      "type": "function",
      "constant": true
    },
    {
      "inputs": [
        {
          "internalType": "string",
          "name": "_eventName",
          "type": "string"
        },
        {
          "internalType": "uint256",
          "name": "_price",
          "type": "uint256"
        },
        {
          "internalType": "uint256",
          "name": "_totalTickets",
          "type": "uint256"
        },
        {
          "internalType": "uint256",
          "name": "_eventDate",
          "type": "uint256"
        }
      ],
      "name": "createNewEvent",
      "outputs": [],
      "stateMutability": "nonpayable",
      "type": "function"
    },
    {
      "inputs": [
        {
          "internalType": "string",
          "name": "_name",
          "type": "string"
        },
        {
          "internalType": "uint256",
          "name": "_count",
          "type": "uint256"
        }
      ],
      "name": "purchaseTickets",
      "outputs": [],
      "stateMutability": "payable",
      "type": "function",
      "payable": true
    },
    {
      "inputs": [
        {
          "internalType": "string",
          "name": "_eventName",
          "type": "string"
        }
      ],
      "name": "verifyTicket",
      "outputs": [],
      "stateMutability": "nonpayable",
      "type": "function"
    },
    {
      "inputs": [
        {
          "internalType": "string",
          "name": "_eventName",
          "type": "string"
        },
        {
          "internalType": "uint256",
          "name": "NumOfticketsToCancel",
          "type": "uint256"
        }
      ],
      "name": "cancelTicket",
      "outputs": [],
      "stateMutability": "nonpayable",
      "type": "function"
    }
  ],
  "bytecode": "0x608060405234801561001057600080fd5b50336000806101000a81548173ffffffffffffffffffffffffffffffffffffffff021916908373ffffffffffffffffffffffffffffffffffffffff160217905550611285806100606000396000f3fe6080604052600436106100555760003560e01c80639673d6a31461005a578063aad8348c1461009a578063b5bcb133146100c3578063c1fb5370146100ec578063e0604e0114610115578063e7c2d6de14610131575b600080fd5b34801561006657600080fd5b50610081600480360381019061007c9190610afd565b61016e565b6040516100919493929190610b5f565b60405180910390f35b3480156100a657600080fd5b506100c160048036038101906100bc9190610bd0565b6101b4565b005b3480156100cf57600080fd5b506100ea60048036038101906100e59190610c53565b610286565b005b3480156100f857600080fd5b50610113600480360381019061010e9190610afd565b610532565b005b61012f600480360381019061012a9190610c53565b610642565b005b34801561013d57600080fd5b5061015860048036038101906101539190610afd565b610818565b6040516101659190610caf565b60405180910390f35b6001818051602081018201805184825260208301602085012081835280955050505050506000915090508060000154908060010154908060020154908060030154905084565b60008054906101000a900473ffffffffffffffffffffffffffffffffffffffff1673ffffffffffffffffffffffffffffffffffffffff163373ffffffffffffffffffffffffffffffffffffffff1614610242576040517f08c379a000000000000000000000000000000000000000000000000000000000815260040161023990610d27565b60405180910390fd5b60006001856040516102549190610db8565b908152602001604051809103902090508381600001819055508281600101819055508181600301819055505050505050565b8160006001826040516102999190610db8565b908152602001604051809103902060030154116102eb576040517f08c379a00000000000000000000000000000000000000000000000000000000081526004016102e290610e1b565b60405180910390fd5b600033905060006001836040516103029190610db8565b908152602001604051809103902060040160008373ffffffffffffffffffffffffffffffffffffffff1673ffffffffffffffffffffffffffffffffffffffff1681526020019081526020016000205411610391576040517f08c379a000000000000000000000000000000000000000000000000000000000815260040161038890610e87565b60405180910390fd5b600033905060006001866040516103a89190610db8565b90815260200160405180910390209050848160040160008473ffffffffffffffffffffffffffffffffffffffff1673ffffffffffffffffffffffffffffffffffffffff16815260200190815260200160002054101561043c576040517f08c379a000000000000000000000000000000000000000000000000000000000815260040161043390610ef3565b60405180910390fd5b848160040160008473ffffffffffffffffffffffffffffffffffffffff1673ffffffffffffffffffffffffffffffffffffffff168152602001908152602001600020600082825461048d9190610f42565b92505081905550848160020160008282546104a89190610f42565b925050819055506000670de0b6b3a764000060028360000154886104cc9190610f76565b6104d69190610fe7565b6104e09190610f76565b90503373ffffffffffffffffffffffffffffffffffffffff166108fc829081150290604051600060405180830381858888f19350505050158015610528573d6000803e3d6000fd5b5050505050505050565b8060006001826040516105459190610db8565b90815260200160405180910390206003015411610597576040517f08c379a000000000000000000000000000000000000000000000000000000000815260040161058e90610e1b565b60405180910390fd5b600033905060006001836040516105ae9190610db8565b908152602001604051809103902060040160008373ffffffffffffffffffffffffffffffffffffffff1673ffffffffffffffffffffffffffffffffffffffff168152602001908152602001600020541161063d576040517f08c379a000000000000000000000000000000000000000000000000000000000815260040161063490610e87565b60405180910390fd5b505050565b60006001836040516106549190610db8565b908152602001604051809103902060030154116106a6576040517f08c379a000000000000000000000000000000000000000000000000000000000815260040161069d90610e1b565b60405180910390fd5b60006001836040516106b89190610db8565b9081526020016040518091039020905060008160000154836106da9190610f76565b905060006106e782610843565b90506000816040516020016106fc919061108a565b6040516020818303038152906040529050670de0b6b3a7640000836107219190610f76565b34148190610765576040517f08c379a000000000000000000000000000000000000000000000000000000000815260040161075c91906110e5565b60405180910390fd5b5083600101548460020154106107b0576040517f08c379a00000000000000000000000000000000000000000000000000000000081526004016107a790611153565b60405180910390fd5b848460040160003373ffffffffffffffffffffffffffffffffffffffff1673ffffffffffffffffffffffffffffffffffffffff1681526020019081526020016000208190555083600201600081548092919061080b90611173565b9190505550505050505050565b600060018260405161082a9190610db8565b9081526020016040518091039020600001549050919050565b60606000820361088a576040518060400160405280600181526020017f3000000000000000000000000000000000000000000000000000000000000000815250905061099e565b600082905060005b600082146108bc5780806108a590611173565b915050600a826108b59190610fe7565b9150610892565b60008167ffffffffffffffff8111156108d8576108d76109d2565b5b6040519080825280601f01601f19166020018201604052801561090a5781602001600182028036833780820191505090505b5090505b60008514610997576001826109239190610f42565b9150600a8561093291906111bb565b603061093e91906111ec565b60f81b81838151811061095457610953611220565b5b60200101907effffffffffffffffffffffffffffffffffffffffffffffffffffffffffffff1916908160001a905350600a856109909190610fe7565b945061090e565b8093505050505b919050565b6000604051905090565b600080fd5b600080fd5b600080fd5b600080fd5b6000601f19601f8301169050919050565b7f4e487b7100000000000000000000000000000000000000000000000000000000600052604160045260246000fd5b610a0a826109c1565b810181811067ffffffffffffffff82111715610a2957610a286109d2565b5b80604052505050565b6000610a3c6109a3565b9050610a488282610a01565b919050565b600067ffffffffffffffff821115610a6857610a676109d2565b5b610a71826109c1565b9050602081019050919050565b82818337600083830152505050565b6000610aa0610a9b84610a4d565b610a32565b905082815260208101848484011115610abc57610abb6109bc565b5b610ac7848285610a7e565b509392505050565b600082601f830112610ae457610ae36109b7565b5b8135610af4848260208601610a8d565b91505092915050565b600060208284031215610b1357610b126109ad565b5b600082013567ffffffffffffffff811115610b3157610b306109b2565b5b610b3d84828501610acf565b91505092915050565b6000819050919050565b610b5981610b46565b82525050565b6000608082019050610b746000830187610b50565b610b816020830186610b50565b610b8e6040830185610b50565b610b9b6060830184610b50565b95945050505050565b610bad81610b46565b8114610bb857600080fd5b50565b600081359050610bca81610ba4565b92915050565b60008060008060808587031215610bea57610be96109ad565b5b600085013567ffffffffffffffff811115610c0857610c076109b2565b5b610c1487828801610acf565b9450506020610c2587828801610bbb565b9350506040610c3687828801610bbb565b9250506060610c4787828801610bbb565b91505092959194509250565b60008060408385031215610c6a57610c696109ad565b5b600083013567ffffffffffffffff811115610c8857610c876109b2565b5b610c9485828601610acf565b9250506020610ca585828601610bbb565b9150509250929050565b6000602082019050610cc46000830184610b50565b92915050565b600082825260208201905092915050565b7f4f6e6c79206d616e616765722063616e20616363657373207468697300000000600082015250565b6000610d11601c83610cca565b9150610d1c82610cdb565b602082019050919050565b60006020820190508181036000830152610d4081610d04565b9050919050565b600081519050919050565b600081905092915050565b60005b83811015610d7b578082015181840152602081019050610d60565b60008484015250505050565b6000610d9282610d47565b610d9c8185610d52565b9350610dac818560208601610d5d565b80840191505092915050565b6000610dc48284610d87565b915081905092915050565b7f4576656e7420646f6573206e6f74206578697374000000000000000000000000600082015250565b6000610e05601483610cca565b9150610e1082610dcf565b602082019050919050565b60006020820190508181036000830152610e3481610df8565b9050919050565b7f596f7520686176656e277420626f7567687420746865207469636b6574000000600082015250565b6000610e71601d83610cca565b9150610e7c82610e3b565b602082019050919050565b60006020820190508181036000830152610ea081610e64565b9050919050565b7f596f7520646f6e2774206861766520656e6f756768207469636b657473000000600082015250565b6000610edd601d83610cca565b9150610ee882610ea7565b602082019050919050565b60006020820190508181036000830152610f0c81610ed0565b9050919050565b7f4e487b7100000000000000000000000000000000000000000000000000000000600052601160045260246000fd5b6000610f4d82610b46565b9150610f5883610b46565b9250828203905081811115610f7057610f6f610f13565b5b92915050565b6000610f8182610b46565b9150610f8c83610b46565b9250828202610f9a81610b46565b91508282048414831517610fb157610fb0610f13565b5b5092915050565b7f4e487b7100000000000000000000000000000000000000000000000000000000600052601260045260246000fd5b6000610ff282610b46565b9150610ffd83610b46565b92508261100d5761100c610fb8565b5b828204905092915050565b7f506c65617365207472616e736665722074686520726571756972657320616d6f60008201527f756e742e20416d6f756e742072657175697265643a2000000000000000000000602082015250565b6000611074603683610d52565b915061107f82611018565b603682019050919050565b600061109582611067565b91506110a18284610d87565b915081905092915050565b60006110b782610d47565b6110c18185610cca565b93506110d1818560208601610d5d565b6110da816109c1565b840191505092915050565b600060208201905081810360008301526110ff81846110ac565b905092915050565b7f4e6f207469636b657473206c6566740000000000000000000000000000000000600082015250565b600061113d600f83610cca565b915061114882611107565b602082019050919050565b6000602082019050818103600083015261116c81611130565b9050919050565b600061117e82610b46565b91507fffffffffffffffffffffffffffffffffffffffffffffffffffffffffffffffff82036111b0576111af610f13565b5b600182019050919050565b60006111c682610b46565b91506111d183610b46565b9250826111e1576111e0610fb8565b5b828206905092915050565b60006111f782610b46565b915061120283610b46565b925082820190508082111561121a57611219610f13565b5b92915050565b7f4e487b7100000000000000000000000000000000000000000000000000000000600052603260045260246000fdfea26469706673582212205a9e801c8858f704a349cf94b5330cd5a34c6bdce572502ea46eb77ac6fbede764736f6c63430008110033",
  "immutableReferences": {},
  "source": "// SPDX-License-Identifier: MIT\n\npragma solidity ^0.8.17;\nimport {Strings} from \"@openzeppelin/contracts/utils/Strings.sol\";\n\ncontract EventManagement {\n    address manager;\n\n    constructor() {\n        manager = msg.sender;\n    }\n\n    modifier isManager() {\n        require(msg.sender == manager, \"Only manager can access this\");\n        _;\n    }\n\n    struct Event {\n        uint256 price;\n        uint256 totalTickets;\n        uint256 ticketsPurchased;\n        uint256 eventDate;\n        mapping(address => uint256) attendees;\n    }\n\n    mapping(string => Event) public events;\n\n    function showEventPrice(string memory _name)\n        external\n        view\n        returns (uint256)\n    {\n        return events[_name].price;\n    }\n\n    function createNewEvent(\n        string memory _eventName,\n        uint256 _price,\n        uint256 _totalTickets,\n        uint256 _eventDate\n    ) external isManager {\n        Event storage e = events[_eventName];\n        e.price = _price;\n        e.totalTickets = _totalTickets;\n        e.eventDate = _eventDate;\n    }\n\n    function purchaseTickets(string memory _name, uint256 _count)\n        external\n        payable\n    {\n        require(events[_name].eventDate > 0, \"Event does not exist\");\n        Event storage targetEvent = events[_name];\n\n        uint256 requiredAmount = _count * targetEvent.price;\n        string memory _requiredAmount = Strings.toString(requiredAmount);\n        string memory ms = string.concat(\n            \"Please transfer the requires amount. Amount required: \",\n            _requiredAmount\n        );\n        require(msg.value == requiredAmount * (10**18), string(ms));\n\n        require(\n            targetEvent.ticketsPurchased < targetEvent.totalTickets,\n            \"No tickets left\"\n        );\n\n        // Register\n        targetEvent.attendees[msg.sender] = _count;\n        targetEvent.ticketsPurchased++;\n    }\n\n    modifier isValidTicket(string memory _eventName) {\n        require(events[_eventName].eventDate > 0, \"Event does not exist\");\n\n        address _adr = msg.sender;\n\n        require(\n            events[_eventName].attendees[_adr] > 0,\n            \"You haven't bought the ticket\"\n        );\n        _;\n    }\n\n    function verifyTicket(string memory _eventName)\n        external\n        isValidTicket(_eventName)\n    {}\n\n    function cancelTicket(\n        string memory _eventName,\n        uint256 NumOfticketsToCancel\n    ) external isValidTicket(_eventName) {\n        address _adr = msg.sender;\n        Event storage targetEvent = events[_eventName];\n        require(\n            targetEvent.attendees[_adr] >= NumOfticketsToCancel,\n            \"You don't have enough tickets\"\n        );\n\n        targetEvent.attendees[_adr] -= NumOfticketsToCancel;\n        targetEvent.ticketsPurchased -= NumOfticketsToCancel;\n\n        // Refund 50%\n        uint256 amountToRefund = ((NumOfticketsToCancel * targetEvent.price) /\n            2) * (10**18);\n        payable(msg.sender).transfer(amountToRefund);\n    }\n}\n",
  "sourcePath": "/Users/deepanshusingh/nft-project/truffle/contracts/eventManagement.sol",
  "compiler": {
    "name": "solc",
    "version": "0.8.17+commit.8df45f5f.Emscripten.clang"
  },
  "schemaVersion": "3.4.10",
  "updatedAt": "2022-10-27T13:00:46.024Z",
  "networkType": "ethereum",
  "devdoc": {
    "kind": "dev",
    "methods": {},
    "version": 1
  },
  "userdoc": {
    "kind": "user",
    "methods": {},
    "version": 1
  }
}