{
  "contractName": "EventManagement",
  "abi": [
    {
      "inputs": [],
      "stateMutability": "nonpayable",
      "type": "constructor"
    },
    {
      "inputs": [
        {
          "internalType": "string",
          "name": "",
          "type": "string"
        }
      ],
      "name": "events",
      "outputs": [
        {
          "internalType": "uint256",
          "name": "price",
          "type": "uint256"
        },
        {
          "internalType": "uint256",
          "name": "totalTickets",
          "type": "uint256"
        },
        {
          "internalType": "uint256",
          "name": "ticketsPurchased",
          "type": "uint256"
        },
        {
          "internalType": "uint256",
          "name": "eventDate",
          "type": "uint256"
        }
      ],
      "stateMutability": "view",
      "type": "function",
      "constant": true
    },
    {
      "inputs": [
        {
          "internalType": "string",
          "name": "_name",
          "type": "string"
        }
      ],
      "name": "showEventPrice",
      "outputs": [
        {
          "internalType": "uint256",
          "name": "",
          "type": "uint256"
        }
      ],
      "stateMutability": "view",
      "type": "function",
      "constant": true
    },
    {
      "inputs": [
        {
          "internalType": "string",
          "name": "_eventName",
          "type": "string"
        },
        {
          "internalType": "uint256",
          "name": "_price",
          "type": "uint256"
        },
        {
          "internalType": "uint256",
          "name": "_totalTickets",
          "type": "uint256"
        },
        {
          "internalType": "uint256",
          "name": "_eventDate",
          "type": "uint256"
        }
      ],
      "name": "createNewEvent",
      "outputs": [],
      "stateMutability": "nonpayable",
      "type": "function"
    },
    {
      "inputs": [
        {
          "internalType": "string",
          "name": "_name",
          "type": "string"
        },
        {
          "internalType": "uint256",
          "name": "_count",
          "type": "uint256"
        }
      ],
      "name": "purchaseTickets",
      "outputs": [],
      "stateMutability": "payable",
      "type": "function",
      "payable": true
    }
  ],
  "bytecode": "0x608060405234801561001057600080fd5b50336000806101000a81548173ffffffffffffffffffffffffffffffffffffffff021916908373ffffffffffffffffffffffffffffffffffffffff160217905550610d89806100606000396000f3fe60806040526004361061003f5760003560e01c80639673d6a314610044578063aad8348c14610084578063e0604e01146100ad578063e7c2d6de146100c9575b600080fd5b34801561005057600080fd5b5061006b600480360381019061006691906106d9565b610106565b60405161007b949392919061073b565b60405180910390f35b34801561009057600080fd5b506100ab60048036038101906100a691906107ac565b61014c565b005b6100c760048036038101906100c2919061082f565b61021e565b005b3480156100d557600080fd5b506100f060048036038101906100eb91906106d9565b6103f4565b6040516100fd919061088b565b60405180910390f35b6001818051602081018201805184825260208301602085012081835280955050505050506000915090508060000154908060010154908060020154908060030154905084565b60008054906101000a900473ffffffffffffffffffffffffffffffffffffffff1673ffffffffffffffffffffffffffffffffffffffff163373ffffffffffffffffffffffffffffffffffffffff16146101da576040517f08c379a00000000000000000000000000000000000000000000000000000000081526004016101d190610903565b60405180910390fd5b60006001856040516101ec9190610994565b908152602001604051809103902090508381600001819055508281600101819055508181600301819055505050505050565b60006001836040516102309190610994565b90815260200160405180910390206003015411610282576040517f08c379a0000000000000000000000000000000000000000000000000000000008152600401610279906109f7565b60405180910390fd5b60006001836040516102949190610994565b9081526020016040518091039020905060008160000154836102b69190610a46565b905060006102c38261041f565b90506000816040516020016102d89190610afa565b6040516020818303038152906040529050670de0b6b3a7640000836102fd9190610a46565b34148190610341576040517f08c379a00000000000000000000000000000000000000000000000000000000081526004016103389190610b55565b60405180910390fd5b50836001015484600201541061038c576040517f08c379a000000000000000000000000000000000000000000000000000000000815260040161038390610bc3565b60405180910390fd5b848460040160003373ffffffffffffffffffffffffffffffffffffffff1673ffffffffffffffffffffffffffffffffffffffff168152602001908152602001600020819055508360020160008154809291906103e790610be3565b9190505550505050505050565b60006001826040516104069190610994565b9081526020016040518091039020600001549050919050565b606060008203610466576040518060400160405280600181526020017f3000000000000000000000000000000000000000000000000000000000000000815250905061057a565b600082905060005b6000821461049857808061048190610be3565b915050600a826104919190610c5a565b915061046e565b60008167ffffffffffffffff8111156104b4576104b36105ae565b5b6040519080825280601f01601f1916602001820160405280156104e65781602001600182028036833780820191505090505b5090505b60008514610573576001826104ff9190610c8b565b9150600a8561050e9190610cbf565b603061051a9190610cf0565b60f81b8183815181106105305761052f610d24565b5b60200101907effffffffffffffffffffffffffffffffffffffffffffffffffffffffffffff1916908160001a905350600a8561056c9190610c5a565b94506104ea565b8093505050505b919050565b6000604051905090565b600080fd5b600080fd5b600080fd5b600080fd5b6000601f19601f8301169050919050565b7f4e487b7100000000000000000000000000000000000000000000000000000000600052604160045260246000fd5b6105e68261059d565b810181811067ffffffffffffffff82111715610605576106046105ae565b5b80604052505050565b600061061861057f565b905061062482826105dd565b919050565b600067ffffffffffffffff821115610644576106436105ae565b5b61064d8261059d565b9050602081019050919050565b82818337600083830152505050565b600061067c61067784610629565b61060e565b90508281526020810184848401111561069857610697610598565b5b6106a384828561065a565b509392505050565b600082601f8301126106c0576106bf610593565b5b81356106d0848260208601610669565b91505092915050565b6000602082840312156106ef576106ee610589565b5b600082013567ffffffffffffffff81111561070d5761070c61058e565b5b610719848285016106ab565b91505092915050565b6000819050919050565b61073581610722565b82525050565b6000608082019050610750600083018761072c565b61075d602083018661072c565b61076a604083018561072c565b610777606083018461072c565b95945050505050565b61078981610722565b811461079457600080fd5b50565b6000813590506107a681610780565b92915050565b600080600080608085870312156107c6576107c5610589565b5b600085013567ffffffffffffffff8111156107e4576107e361058e565b5b6107f0878288016106ab565b945050602061080187828801610797565b935050604061081287828801610797565b925050606061082387828801610797565b91505092959194509250565b6000806040838503121561084657610845610589565b5b600083013567ffffffffffffffff8111156108645761086361058e565b5b610870858286016106ab565b925050602061088185828601610797565b9150509250929050565b60006020820190506108a0600083018461072c565b92915050565b600082825260208201905092915050565b7f4f6e6c79206d616e616765722063616e20616363657373207468697300000000600082015250565b60006108ed601c836108a6565b91506108f8826108b7565b602082019050919050565b6000602082019050818103600083015261091c816108e0565b9050919050565b600081519050919050565b600081905092915050565b60005b8381101561095757808201518184015260208101905061093c565b60008484015250505050565b600061096e82610923565b610978818561092e565b9350610988818560208601610939565b80840191505092915050565b60006109a08284610963565b915081905092915050565b7f4576656e7420646f6573206e6f74206578697374000000000000000000000000600082015250565b60006109e16014836108a6565b91506109ec826109ab565b602082019050919050565b60006020820190508181036000830152610a10816109d4565b9050919050565b7f4e487b7100000000000000000000000000000000000000000000000000000000600052601160045260246000fd5b6000610a5182610722565b9150610a5c83610722565b9250828202610a6a81610722565b91508282048414831517610a8157610a80610a17565b5b5092915050565b7f506c65617365207472616e736665722074686520726571756972657320616d6f60008201527f756e742e20416d6f756e742072657175697265643a2000000000000000000000602082015250565b6000610ae460368361092e565b9150610aef82610a88565b603682019050919050565b6000610b0582610ad7565b9150610b118284610963565b915081905092915050565b6000610b2782610923565b610b3181856108a6565b9350610b41818560208601610939565b610b4a8161059d565b840191505092915050565b60006020820190508181036000830152610b6f8184610b1c565b905092915050565b7f4e6f207469636b657473206c6566740000000000000000000000000000000000600082015250565b6000610bad600f836108a6565b9150610bb882610b77565b602082019050919050565b60006020820190508181036000830152610bdc81610ba0565b9050919050565b6000610bee82610722565b91507fffffffffffffffffffffffffffffffffffffffffffffffffffffffffffffffff8203610c2057610c1f610a17565b5b600182019050919050565b7f4e487b7100000000000000000000000000000000000000000000000000000000600052601260045260246000fd5b6000610c6582610722565b9150610c7083610722565b925082610c8057610c7f610c2b565b5b828204905092915050565b6000610c9682610722565b9150610ca183610722565b9250828203905081811115610cb957610cb8610a17565b5b92915050565b6000610cca82610722565b9150610cd583610722565b925082610ce557610ce4610c2b565b5b828206905092915050565b6000610cfb82610722565b9150610d0683610722565b9250828201905080821115610d1e57610d1d610a17565b5b92915050565b7f4e487b7100000000000000000000000000000000000000000000000000000000600052603260045260246000fdfea264697066735822122070157130df34dd26d7fd5b789c2be9afd345bee9ab30f6d946a995f855422ea564736f6c63430008110033",
  "immutableReferences": {},
  "source": "// SPDX-License-Identifier: MIT\n\npragma solidity ^0.8.17;\nimport {Strings} from \"@openzeppelin/contracts/utils/Strings.sol\";\n\ncontract EventManagement {\n    address manager;\n\n    constructor() {\n        manager = msg.sender;\n    }\n\n    modifier isManager() {\n        require(msg.sender == manager, \"Only manager can access this\");\n        _;\n    }\n\n    struct Event {\n        uint256 price;\n        uint256 totalTickets;\n        uint256 ticketsPurchased;\n        uint256 eventDate;\n        mapping(address => uint256) attendees;\n    }\n\n    mapping(string => Event) public events;\n\n    function showEventPrice(string memory _name)\n        external\n        view\n        returns (uint256)\n    {\n        return events[_name].price;\n    }\n\n    function createNewEvent(\n        string memory _eventName,\n        uint256 _price,\n        uint256 _totalTickets,\n        uint256 _eventDate\n    ) external isManager {\n        Event storage e = events[_eventName];\n        e.price = _price;\n        e.totalTickets = _totalTickets;\n        e.eventDate = _eventDate;\n    }\n\n    function purchaseTickets(string memory _name, uint256 _count)\n        external\n        payable\n    {\n        require(events[_name].eventDate > 0, \"Event does not exist\");\n        Event storage targetEvent = events[_name];\n\n        uint256 requiredAmount = _count * targetEvent.price;\n        string memory _requiredAmount = Strings.toString(requiredAmount);\n        string memory ms = string.concat(\n            \"Please transfer the requires amount. Amount required: \",\n            _requiredAmount\n        );\n        require(msg.value == requiredAmount * (10**18), string(ms));\n\n        require(\n            targetEvent.ticketsPurchased < targetEvent.totalTickets,\n            \"No tickets left\"\n        );\n\n        // Register\n        targetEvent.attendees[msg.sender] = _count;\n        targetEvent.ticketsPurchased++;\n    }\n}\n",
  "sourcePath": "/Users/deepanshusingh/nft-project/truffle/contracts/eventManagement.sol",
  "compiler": {
    "name": "solc",
    "version": "0.8.17+commit.8df45f5f.Emscripten.clang"
  },
  "schemaVersion": "3.4.10",
  "updatedAt": "2022-10-22T09:20:32.771Z",
  "networkType": "ethereum",
  "devdoc": {
    "kind": "dev",
    "methods": {},
    "version": 1
  },
  "userdoc": {
    "kind": "user",
    "methods": {},
    "version": 1
  }
}