{
  "contractName": "Lottery",
  "abi": [
    {
      "inputs": [],
      "stateMutability": "nonpayable",
      "type": "constructor"
    },
    {
      "inputs": [],
      "name": "manager",
      "outputs": [
        {
          "internalType": "address",
          "name": "",
          "type": "address"
        }
      ],
      "stateMutability": "view",
      "type": "function",
      "constant": true
    },
    {
      "stateMutability": "payable",
      "type": "receive",
      "payable": true
    },
    {
      "inputs": [],
      "name": "CheckBalance",
      "outputs": [
        {
          "internalType": "uint256",
          "name": "",
          "type": "uint256"
        }
      ],
      "stateMutability": "view",
      "type": "function",
      "constant": true
    },
    {
      "inputs": [],
      "name": "participantsCount",
      "outputs": [
        {
          "internalType": "uint256",
          "name": "",
          "type": "uint256"
        }
      ],
      "stateMutability": "view",
      "type": "function",
      "constant": true
    },
    {
      "inputs": [],
      "name": "SelectWinner",
      "outputs": [],
      "stateMutability": "nonpayable",
      "type": "function"
    }
  ],
  "bytecode": "0x608060405234801561001057600080fd5b50336000806101000a81548173ffffffffffffffffffffffffffffffffffffffff021916908373ffffffffffffffffffffffffffffffffffffffff1602179055506107ed806100606000396000f3fe6080604052600436106100435760003560e01c806344e73b78146100fb578063481c6a7514610126578063bee0989014610151578063dd60c89814610168576100f6565b366100f657671bc16d674ec800003414610092576040517f08c379a000000000000000000000000000000000000000000000000000000000815260040161008990610553565b60405180910390fd5b6001339080600181540180825580915050600190039060005260206000200160009091909190916101000a81548173ffffffffffffffffffffffffffffffffffffffff021916908373ffffffffffffffffffffffffffffffffffffffff1602179055005b600080fd5b34801561010757600080fd5b50610110610193565b60405161011d919061058c565b60405180910390f35b34801561013257600080fd5b5061013b61022a565b60405161014891906105e8565b60405180910390f35b34801561015d57600080fd5b5061016661024e565b005b34801561017457600080fd5b5061017d6103dd565b60405161018a919061058c565b60405180910390f35b60008060009054906101000a900473ffffffffffffffffffffffffffffffffffffffff1673ffffffffffffffffffffffffffffffffffffffff163373ffffffffffffffffffffffffffffffffffffffff1614610224576040517f08c379a000000000000000000000000000000000000000000000000000000000815260040161021b9061064f565b60405180910390fd5b47905090565b60008054906101000a900473ffffffffffffffffffffffffffffffffffffffff1681565b60008054906101000a900473ffffffffffffffffffffffffffffffffffffffff1673ffffffffffffffffffffffffffffffffffffffff163373ffffffffffffffffffffffffffffffffffffffff16146102dc576040517f08c379a00000000000000000000000000000000000000000000000000000000081526004016102d39061064f565b60405180910390fd5b60036102e66103dd565b11610326576040517f08c379a000000000000000000000000000000000000000000000000000000000815260040161031d906106bb565b60405180910390fd5b6000610330610479565b905061033a6103dd565b81610345919061070a565b90506001818154811061035b5761035a61073b565b5b9060005260206000200160009054906101000a900473ffffffffffffffffffffffffffffffffffffffff1673ffffffffffffffffffffffffffffffffffffffff166108fc479081150290604051600060405180830381858888f193505050501580156103cb573d6000803e3d6000fd5b50600160006103da91906104b8565b50565b60008060009054906101000a900473ffffffffffffffffffffffffffffffffffffffff1673ffffffffffffffffffffffffffffffffffffffff163373ffffffffffffffffffffffffffffffffffffffff161461046e576040517f08c379a00000000000000000000000000000000000000000000000000000000081526004016104659061064f565b60405180910390fd5b600180549050905090565b600080426104856103dd565b60405160200161049692919061078b565b6040516020818303038152906040529050808051906020012060001c91505090565b50805460008255906000526020600020908101906104d691906104d9565b50565b5b808211156104f25760008160009055506001016104da565b5090565b600082825260208201905092915050565b7f596f75206d7573742073656e642065786163746c792032206574686572000000600082015250565b600061053d601d836104f6565b915061054882610507565b602082019050919050565b6000602082019050818103600083015261056c81610530565b9050919050565b6000819050919050565b61058681610573565b82525050565b60006020820190506105a1600083018461057d565b92915050565b600073ffffffffffffffffffffffffffffffffffffffff82169050919050565b60006105d2826105a7565b9050919050565b6105e2816105c7565b82525050565b60006020820190506105fd60008301846105d9565b92915050565b7f596f75206d75737420626520746865206d616e61676572000000000000000000600082015250565b60006106396017836104f6565b915061064482610603565b602082019050919050565b600060208201905081810360008301526106688161062c565b9050919050565b7f5061727469636970616e747320436f756e74206d757374206265203e20330000600082015250565b60006106a5601e836104f6565b91506106b08261066f565b602082019050919050565b600060208201905081810360008301526106d481610698565b9050919050565b7f4e487b7100000000000000000000000000000000000000000000000000000000600052601260045260246000fd5b600061071582610573565b915061072083610573565b9250826107305761072f6106db565b5b828206905092915050565b7f4e487b7100000000000000000000000000000000000000000000000000000000600052603260045260246000fd5b6000819050919050565b61078561078082610573565b61076a565b82525050565b60006107978285610774565b6020820191506107a78284610774565b602082019150819050939250505056fea264697066735822122059a66155c38daff7f2beab814ab719b979e4ae68a87d2760ad512bf831df766364736f6c63430008110033",
  "immutableReferences": {},
  "source": "// SPDX-License-Identifier: MIT\npragma solidity ^0.8.4;\n\ncontract Lottery {\n    address public manager;\n    address payable[] private participants;\n\n    constructor() {\n        manager = msg.sender;\n    }\n\n    modifier isManager() {\n        require(msg.sender == manager, \"You must be the manager\");\n        _;\n    }\n\n    function CheckBalance() external view isManager returns (uint256) {\n        return address(this).balance;\n    }\n\n    function participantsCount() public view isManager returns (uint256) {\n        return participants.length;\n    }\n\n    function generateRandomInteger() private view returns (uint256) {\n        bytes memory encoded = abi.encodePacked(\n            block.timestamp,\n            participantsCount()\n        );\n        return uint256(keccak256(encoded));\n    }\n\n    function SelectWinner() external isManager {\n        require(participantsCount() > 3, \"Participants Count must be > 3\");\n\n        uint256 randomInt = generateRandomInteger();\n        randomInt = randomInt % participantsCount();\n\n        // Transferring all funds to winner\n        participants[randomInt].transfer(address(this).balance);\n\n        // Reset contract\n        delete participants;\n    }\n\n    receive() external payable {\n        require(msg.value == 2 ether, \"You must send exactly 2 ether\");\n        participants.push(payable(msg.sender));\n    }\n}\n",
  "sourcePath": "/Users/deepanshusingh/nft-project/truffle/contracts/lottery.sol",
  "compiler": {
    "name": "solc",
    "version": "0.8.17+commit.8df45f5f.Emscripten.clang"
  },
  "schemaVersion": "3.4.10",
  "updatedAt": "2022-10-21T20:32:40.250Z",
  "networkType": "ethereum",
  "devdoc": {
    "kind": "dev",
    "methods": {},
    "version": 1
  },
  "userdoc": {
    "kind": "user",
    "methods": {},
    "version": 1
  }
}