{
  "contractName": "Spacebear",
  "abi": [
    {
      "inputs": [],
      "stateMutability": "nonpayable",
      "type": "constructor"
    },
    {
      "anonymous": false,
      "inputs": [
        {
          "indexed": true,
          "internalType": "address",
          "name": "owner",
          "type": "address"
        },
        {
          "indexed": true,
          "internalType": "address",
          "name": "approved",
          "type": "address"
        },
        {
          "indexed": true,
          "internalType": "uint256",
          "name": "tokenId",
          "type": "uint256"
        }
      ],
      "name": "Approval",
      "type": "event"
    },
    {
      "anonymous": false,
      "inputs": [
        {
          "indexed": true,
          "internalType": "address",
          "name": "owner",
          "type": "address"
        },
        {
          "indexed": true,
          "internalType": "address",
          "name": "operator",
          "type": "address"
        },
        {
          "indexed": false,
          "internalType": "bool",
          "name": "approved",
          "type": "bool"
        }
      ],
      "name": "ApprovalForAll",
      "type": "event"
    },
    {
      "anonymous": false,
      "inputs": [
        {
          "indexed": true,
          "internalType": "address",
          "name": "previousOwner",
          "type": "address"
        },
        {
          "indexed": true,
          "internalType": "address",
          "name": "newOwner",
          "type": "address"
        }
      ],
      "name": "OwnershipTransferred",
      "type": "event"
    },
    {
      "anonymous": false,
      "inputs": [
        {
          "indexed": true,
          "internalType": "address",
          "name": "from",
          "type": "address"
        },
        {
          "indexed": true,
          "internalType": "address",
          "name": "to",
          "type": "address"
        },
        {
          "indexed": true,
          "internalType": "uint256",
          "name": "tokenId",
          "type": "uint256"
        }
      ],
      "name": "Transfer",
      "type": "event"
    },
    {
      "inputs": [
        {
          "internalType": "address",
          "name": "to",
          "type": "address"
        },
        {
          "internalType": "uint256",
          "name": "tokenId",
          "type": "uint256"
        }
      ],
      "name": "approve",
      "outputs": [],
      "stateMutability": "nonpayable",
      "type": "function"
    },
    {
      "inputs": [
        {
          "internalType": "address",
          "name": "owner",
          "type": "address"
        }
      ],
      "name": "balanceOf",
      "outputs": [
        {
          "internalType": "uint256",
          "name": "",
          "type": "uint256"
        }
      ],
      "stateMutability": "view",
      "type": "function",
      "constant": true
    },
    {
      "inputs": [
        {
          "internalType": "uint256",
          "name": "tokenId",
          "type": "uint256"
        }
      ],
      "name": "getApproved",
      "outputs": [
        {
          "internalType": "address",
          "name": "",
          "type": "address"
        }
      ],
      "stateMutability": "view",
      "type": "function",
      "constant": true
    },
    {
      "inputs": [
        {
          "internalType": "address",
          "name": "owner",
          "type": "address"
        },
        {
          "internalType": "address",
          "name": "operator",
          "type": "address"
        }
      ],
      "name": "isApprovedForAll",
      "outputs": [
        {
          "internalType": "bool",
          "name": "",
          "type": "bool"
        }
      ],
      "stateMutability": "view",
      "type": "function",
      "constant": true
    },
    {
      "inputs": [],
      "name": "name",
      "outputs": [
        {
          "internalType": "string",
          "name": "",
          "type": "string"
        }
      ],
      "stateMutability": "view",
      "type": "function",
      "constant": true
    },
    {
      "inputs": [],
      "name": "owner",
      "outputs": [
        {
          "internalType": "address",
          "name": "",
          "type": "address"
        }
      ],
      "stateMutability": "view",
      "type": "function",
      "constant": true
    },
    {
      "inputs": [
        {
          "internalType": "uint256",
          "name": "tokenId",
          "type": "uint256"
        }
      ],
      "name": "ownerOf",
      "outputs": [
        {
          "internalType": "address",
          "name": "",
          "type": "address"
        }
      ],
      "stateMutability": "view",
      "type": "function",
      "constant": true
    },
    {
      "inputs": [],
      "name": "renounceOwnership",
      "outputs": [],
      "stateMutability": "nonpayable",
      "type": "function"
    },
    {
      "inputs": [
        {
          "internalType": "address",
          "name": "from",
          "type": "address"
        },
        {
          "internalType": "address",
          "name": "to",
          "type": "address"
        },
        {
          "internalType": "uint256",
          "name": "tokenId",
          "type": "uint256"
        }
      ],
      "name": "safeTransferFrom",
      "outputs": [],
      "stateMutability": "nonpayable",
      "type": "function"
    },
    {
      "inputs": [
        {
          "internalType": "address",
          "name": "from",
          "type": "address"
        },
        {
          "internalType": "address",
          "name": "to",
          "type": "address"
        },
        {
          "internalType": "uint256",
          "name": "tokenId",
          "type": "uint256"
        },
        {
          "internalType": "bytes",
          "name": "data",
          "type": "bytes"
        }
      ],
      "name": "safeTransferFrom",
      "outputs": [],
      "stateMutability": "nonpayable",
      "type": "function"
    },
    {
      "inputs": [
        {
          "internalType": "address",
          "name": "operator",
          "type": "address"
        },
        {
          "internalType": "bool",
          "name": "approved",
          "type": "bool"
        }
      ],
      "name": "setApprovalForAll",
      "outputs": [],
      "stateMutability": "nonpayable",
      "type": "function"
    },
    {
      "inputs": [
        {
          "internalType": "bytes4",
          "name": "interfaceId",
          "type": "bytes4"
        }
      ],
      "name": "supportsInterface",
      "outputs": [
        {
          "internalType": "bool",
          "name": "",
          "type": "bool"
        }
      ],
      "stateMutability": "view",
      "type": "function",
      "constant": true
    },
    {
      "inputs": [],
      "name": "symbol",
      "outputs": [
        {
          "internalType": "string",
          "name": "",
          "type": "string"
        }
      ],
      "stateMutability": "view",
      "type": "function",
      "constant": true
    },
    {
      "inputs": [
        {
          "internalType": "address",
          "name": "from",
          "type": "address"
        },
        {
          "internalType": "address",
          "name": "to",
          "type": "address"
        },
        {
          "internalType": "uint256",
          "name": "tokenId",
          "type": "uint256"
        }
      ],
      "name": "transferFrom",
      "outputs": [],
      "stateMutability": "nonpayable",
      "type": "function"
    },
    {
      "inputs": [
        {
          "internalType": "address",
          "name": "newOwner",
          "type": "address"
        }
      ],
      "name": "transferOwnership",
      "outputs": [],
      "stateMutability": "nonpayable",
      "type": "function"
    },
    {
      "inputs": [],
      "name": "buyToken",
      "outputs": [],
      "stateMutability": "payable",
      "type": "function",
      "payable": true
    },
    {
      "inputs": [
        {
          "internalType": "address",
          "name": "to",
          "type": "address"
        },
        {
          "internalType": "string",
          "name": "uri",
          "type": "string"
        }
      ],
      "name": "safeMint",
      "outputs": [],
      "stateMutability": "nonpayable",
      "type": "function"
    },
    {
      "inputs": [
        {
          "internalType": "uint256",
          "name": "tokenId",
          "type": "uint256"
        }
      ],
      "name": "tokenURI",
      "outputs": [
        {
          "internalType": "string",
          "name": "",
          "type": "string"
        }
      ],
      "stateMutability": "pure",
      "type": "function",
      "constant": true
    }
  ],
  "bytecode": "0x60806040523480156200001157600080fd5b506040518060400160405280600981526020017f53706163656265617200000000000000000000000000000000000000000000008152506040518060400160405280600381526020017f534252000000000000000000000000000000000000000000000000000000000081525081600090816200008f919062000412565b508060019081620000a1919062000412565b505050620000c4620000b8620000ca60201b60201c565b620000d260201b60201c565b620004f9565b600033905090565b6000600760009054906101000a900473ffffffffffffffffffffffffffffffffffffffff16905081600760006101000a81548173ffffffffffffffffffffffffffffffffffffffff021916908373ffffffffffffffffffffffffffffffffffffffff1602179055508173ffffffffffffffffffffffffffffffffffffffff168173ffffffffffffffffffffffffffffffffffffffff167f8be0079c531659141344cd1fd0a4f28419497f9722a3daafe3b4186f6b6457e060405160405180910390a35050565b600081519050919050565b7f4e487b7100000000000000000000000000000000000000000000000000000000600052604160045260246000fd5b7f4e487b7100000000000000000000000000000000000000000000000000000000600052602260045260246000fd5b600060028204905060018216806200021a57607f821691505b60208210810362000230576200022f620001d2565b5b50919050565b60008190508160005260206000209050919050565b60006020601f8301049050919050565b600082821b905092915050565b6000600883026200029a7fffffffffffffffffffffffffffffffffffffffffffffffffffffffffffffffff826200025b565b620002a686836200025b565b95508019841693508086168417925050509392505050565b6000819050919050565b6000819050919050565b6000620002f3620002ed620002e784620002be565b620002c8565b620002be565b9050919050565b6000819050919050565b6200030f83620002d2565b620003276200031e82620002fa565b84845462000268565b825550505050565b600090565b6200033e6200032f565b6200034b81848462000304565b505050565b5b8181101562000373576200036760008262000334565b60018101905062000351565b5050565b601f821115620003c2576200038c8162000236565b62000397846200024b565b81016020851015620003a7578190505b620003bf620003b6856200024b565b83018262000350565b50505b505050565b600082821c905092915050565b6000620003e760001984600802620003c7565b1980831691505092915050565b6000620004028383620003d4565b9150826002028217905092915050565b6200041d8262000198565b67ffffffffffffffff811115620004395762000438620001a3565b5b62000445825462000201565b6200045282828562000377565b600060209050601f8311600181146200048a576000841562000475578287015190505b620004818582620003f4565b865550620004f1565b601f1984166200049a8662000236565b60005b82811015620004c4578489015182556001820191506020850194506020810190506200049d565b86831015620004e45784890151620004e0601f891682620003d4565b8355505b6001600288020188555050505b505050505050565b612e7780620005096000396000f3fe6080604052600436106101095760003560e01c80638da5cb5b11610095578063b88d4fde11610064578063b88d4fde14610348578063c87b56dd14610371578063d204c45e146103ae578063e985e9c5146103d7578063f2fde38b1461041457610109565b80638da5cb5b146102bf57806395d89b41146102ea578063a22cb46514610315578063a48217191461033e57610109565b806323b872dd116100dc57806323b872dd146101dc57806342842e0e146102055780636352211e1461022e57806370a082311461026b578063715018a6146102a857610109565b806301ffc9a71461010e57806306fdde031461014b578063081812fc14610176578063095ea7b3146101b3575b600080fd5b34801561011a57600080fd5b5061013560048036038101906101309190611a3b565b61043d565b6040516101429190611a83565b60405180910390f35b34801561015757600080fd5b5061016061051f565b60405161016d9190611b2e565b60405180910390f35b34801561018257600080fd5b5061019d60048036038101906101989190611b86565b6105b1565b6040516101aa9190611bf4565b60405180910390f35b3480156101bf57600080fd5b506101da60048036038101906101d59190611c3b565b6105f7565b005b3480156101e857600080fd5b5061020360048036038101906101fe9190611c7b565b61070e565b005b34801561021157600080fd5b5061022c60048036038101906102279190611c7b565b61076e565b005b34801561023a57600080fd5b5061025560048036038101906102509190611b86565b61078e565b6040516102629190611bf4565b60405180910390f35b34801561027757600080fd5b50610292600480360381019061028d9190611cce565b61083f565b60405161029f9190611d0a565b60405180910390f35b3480156102b457600080fd5b506102bd6108f6565b005b3480156102cb57600080fd5b506102d461090a565b6040516102e19190611bf4565b60405180910390f35b3480156102f657600080fd5b506102ff610934565b60405161030c9190611b2e565b60405180910390f35b34801561032157600080fd5b5061033c60048036038101906103379190611d51565b6109c6565b005b6103466109dc565b005b34801561035457600080fd5b5061036f600480360381019061036a9190611ec6565b610a8a565b005b34801561037d57600080fd5b5061039860048036038101906103939190611b86565b610aec565b6040516103a59190611b2e565b60405180910390f35b3480156103ba57600080fd5b506103d560048036038101906103d09190611fea565b610b1e565b005b3480156103e357600080fd5b506103fe60048036038101906103f99190612046565b610b57565b60405161040b9190611a83565b60405180910390f35b34801561042057600080fd5b5061043b60048036038101906104369190611cce565b610beb565b005b60007f80ac58cd000000000000000000000000000000000000000000000000000000007bffffffffffffffffffffffffffffffffffffffffffffffffffffffff1916827bffffffffffffffffffffffffffffffffffffffffffffffffffffffff1916148061050857507f5b5e139f000000000000000000000000000000000000000000000000000000007bffffffffffffffffffffffffffffffffffffffffffffffffffffffff1916827bffffffffffffffffffffffffffffffffffffffffffffffffffffffff1916145b80610518575061051782610c6e565b5b9050919050565b60606000805461052e906120b5565b80601f016020809104026020016040519081016040528092919081815260200182805461055a906120b5565b80156105a75780601f1061057c576101008083540402835291602001916105a7565b820191906000526020600020905b81548152906001019060200180831161058a57829003601f168201915b5050505050905090565b60006105bc82610cd8565b6004600083815260200190815260200160002060009054906101000a900473ffffffffffffffffffffffffffffffffffffffff169050919050565b60006106028261078e565b90508073ffffffffffffffffffffffffffffffffffffffff168373ffffffffffffffffffffffffffffffffffffffff1603610672576040517f08c379a000000000000000000000000000000000000000000000000000000000815260040161066990612158565b60405180910390fd5b8073ffffffffffffffffffffffffffffffffffffffff16610691610d23565b73ffffffffffffffffffffffffffffffffffffffff1614806106c057506106bf816106ba610d23565b610b57565b5b6106ff576040517f08c379a00000000000000000000000000000000000000000000000000000000081526004016106f6906121ea565b60405180910390fd5b6107098383610d2b565b505050565b61071f610719610d23565b82610de4565b61075e576040517f08c379a00000000000000000000000000000000000000000000000000000000081526004016107559061227c565b60405180910390fd5b610769838383610e79565b505050565b61078983838360405180602001604052806000815250610a8a565b505050565b6000806002600084815260200190815260200160002060009054906101000a900473ffffffffffffffffffffffffffffffffffffffff169050600073ffffffffffffffffffffffffffffffffffffffff168173ffffffffffffffffffffffffffffffffffffffff1603610836576040517f08c379a000000000000000000000000000000000000000000000000000000000815260040161082d906122e8565b60405180910390fd5b80915050919050565b60008073ffffffffffffffffffffffffffffffffffffffff168273ffffffffffffffffffffffffffffffffffffffff16036108af576040517f08c379a00000000000000000000000000000000000000000000000000000000081526004016108a69061237a565b60405180910390fd5b600360008373ffffffffffffffffffffffffffffffffffffffff1673ffffffffffffffffffffffffffffffffffffffff168152602001908152602001600020549050919050565b6108fe6110df565b610908600061115d565b565b6000600760009054906101000a900473ffffffffffffffffffffffffffffffffffffffff16905090565b606060018054610943906120b5565b80601f016020809104026020016040519081016040528092919081815260200182805461096f906120b5565b80156109bc5780601f10610991576101008083540402835291602001916109bc565b820191906000526020600020905b81548152906001019060200180831161099f57829003601f168201915b5050505050905090565b6109d86109d1610d23565b8383611223565b5050565b60006109e8600861138f565b9050610a296040518060400160405280600b81526020017f444545454550414e5348550000000000000000000000000000000000000000008152508261139d565b3467016345785d8a000014610a73576040517f08c379a0000000000000000000000000000000000000000000000000000000008152600401610a6a906123e6565b60405180910390fd5b610a7d6008611439565b610a87338261144f565b50565b610a9b610a95610d23565b83610de4565b610ada576040517f08c379a0000000000000000000000000000000000000000000000000000000008152600401610ad19061227c565b60405180910390fd5b610ae68484848461146d565b50505050565b6060610af66114c9565b82604051602001610b089291906124fb565b6040516020818303038152906040529050919050565b610b266110df565b6000610b32600861138f565b9050610b3e6008611439565b610b48838261144f565b610b5281836114e9565b505050565b6000600560008473ffffffffffffffffffffffffffffffffffffffff1673ffffffffffffffffffffffffffffffffffffffff16815260200190815260200160002060008373ffffffffffffffffffffffffffffffffffffffff1673ffffffffffffffffffffffffffffffffffffffff16815260200190815260200160002060009054906101000a900460ff16905092915050565b610bf36110df565b600073ffffffffffffffffffffffffffffffffffffffff168173ffffffffffffffffffffffffffffffffffffffff1603610c62576040517f08c379a0000000000000000000000000000000000000000000000000000000008152600401610c59906125ab565b60405180910390fd5b610c6b8161115d565b50565b60007f01ffc9a7000000000000000000000000000000000000000000000000000000007bffffffffffffffffffffffffffffffffffffffffffffffffffffffff1916827bffffffffffffffffffffffffffffffffffffffffffffffffffffffff1916149050919050565b610ce181611556565b610d20576040517f08c379a0000000000000000000000000000000000000000000000000000000008152600401610d17906122e8565b60405180910390fd5b50565b600033905090565b816004600083815260200190815260200160002060006101000a81548173ffffffffffffffffffffffffffffffffffffffff021916908373ffffffffffffffffffffffffffffffffffffffff160217905550808273ffffffffffffffffffffffffffffffffffffffff16610d9e8361078e565b73ffffffffffffffffffffffffffffffffffffffff167f8c5be1e5ebec7d5bd14f71427d1e84f3dd0314c0f7b2291e5b200ac8c7c3b92560405160405180910390a45050565b600080610df08361078e565b90508073ffffffffffffffffffffffffffffffffffffffff168473ffffffffffffffffffffffffffffffffffffffff161480610e325750610e318185610b57565b5b80610e7057508373ffffffffffffffffffffffffffffffffffffffff16610e58846105b1565b73ffffffffffffffffffffffffffffffffffffffff16145b91505092915050565b8273ffffffffffffffffffffffffffffffffffffffff16610e998261078e565b73ffffffffffffffffffffffffffffffffffffffff1614610eef576040517f08c379a0000000000000000000000000000000000000000000000000000000008152600401610ee69061263d565b60405180910390fd5b600073ffffffffffffffffffffffffffffffffffffffff168273ffffffffffffffffffffffffffffffffffffffff1603610f5e576040517f08c379a0000000000000000000000000000000000000000000000000000000008152600401610f55906126cf565b60405180910390fd5b610f698383836115c2565b610f74600082610d2b565b6001600360008573ffffffffffffffffffffffffffffffffffffffff1673ffffffffffffffffffffffffffffffffffffffff1681526020019081526020016000206000828254610fc4919061271e565b925050819055506001600360008473ffffffffffffffffffffffffffffffffffffffff1673ffffffffffffffffffffffffffffffffffffffff168152602001908152602001600020600082825461101b9190612752565b92505081905550816002600083815260200190815260200160002060006101000a81548173ffffffffffffffffffffffffffffffffffffffff021916908373ffffffffffffffffffffffffffffffffffffffff160217905550808273ffffffffffffffffffffffffffffffffffffffff168473ffffffffffffffffffffffffffffffffffffffff167fddf252ad1be2c89b69c2b068fc378daa952ba7f163c4a11628f55a4df523b3ef60405160405180910390a46110da8383836115c7565b505050565b6110e7610d23565b73ffffffffffffffffffffffffffffffffffffffff1661110561090a565b73ffffffffffffffffffffffffffffffffffffffff161461115b576040517f08c379a0000000000000000000000000000000000000000000000000000000008152600401611152906127d2565b60405180910390fd5b565b6000600760009054906101000a900473ffffffffffffffffffffffffffffffffffffffff16905081600760006101000a81548173ffffffffffffffffffffffffffffffffffffffff021916908373ffffffffffffffffffffffffffffffffffffffff1602179055508173ffffffffffffffffffffffffffffffffffffffff168173ffffffffffffffffffffffffffffffffffffffff167f8be0079c531659141344cd1fd0a4f28419497f9722a3daafe3b4186f6b6457e060405160405180910390a35050565b8173ffffffffffffffffffffffffffffffffffffffff168373ffffffffffffffffffffffffffffffffffffffff1603611291576040517f08c379a00000000000000000000000000000000000000000000000000000000081526004016112889061283e565b60405180910390fd5b80600560008573ffffffffffffffffffffffffffffffffffffffff1673ffffffffffffffffffffffffffffffffffffffff16815260200190815260200160002060008473ffffffffffffffffffffffffffffffffffffffff1673ffffffffffffffffffffffffffffffffffffffff16815260200190815260200160002060006101000a81548160ff0219169083151502179055508173ffffffffffffffffffffffffffffffffffffffff168373ffffffffffffffffffffffffffffffffffffffff167f17307eab39ab6107e8899845ad3d59bd9653f200f220920489ca2b5937696c31836040516113829190611a83565b60405180910390a3505050565b600081600001549050919050565b61143582826040516024016113b392919061285e565b6040516020818303038152906040527fb60e72cc000000000000000000000000000000000000000000000000000000007bffffffffffffffffffffffffffffffffffffffffffffffffffffffff19166020820180517bffffffffffffffffffffffffffffffffffffffffffffffffffffffff83818316178352505050506115cc565b5050565b6001816000016000828254019250508190555050565b6114698282604051806020016040528060008152506115f1565b5050565b611478848484610e79565b6114848484848461164c565b6114c3576040517f08c379a00000000000000000000000000000000000000000000000000000000081526004016114ba90612900565b60405180910390fd5b50505050565b6060604051806080016040528060568152602001612dec60569139905090565b6114f282611556565b611531576040517f08c379a000000000000000000000000000000000000000000000000000000000815260040161152890612992565b60405180910390fd5b806006600084815260200190815260200160002090816115519190612b5e565b505050565b60008073ffffffffffffffffffffffffffffffffffffffff166002600084815260200190815260200160002060009054906101000a900473ffffffffffffffffffffffffffffffffffffffff1673ffffffffffffffffffffffffffffffffffffffff1614159050919050565b505050565b505050565b60006a636f6e736f6c652e6c6f6790508151602083016000808383865afa5050505050565b6115fb83836117d3565b611608600084848461164c565b611647576040517f08c379a000000000000000000000000000000000000000000000000000000000815260040161163e90612900565b60405180910390fd5b505050565b600061166d8473ffffffffffffffffffffffffffffffffffffffff166119ac565b156117c6578373ffffffffffffffffffffffffffffffffffffffff1663150b7a02611696610d23565b8786866040518563ffffffff1660e01b81526004016116b89493929190612c85565b6020604051808303816000875af19250505080156116f457506040513d601f19601f820116820180604052508101906116f19190612ce6565b60015b611776573d8060008114611724576040519150601f19603f3d011682016040523d82523d6000602084013e611729565b606091505b50600081510361176e576040517f08c379a000000000000000000000000000000000000000000000000000000000815260040161176590612900565b60405180910390fd5b805181602001fd5b63150b7a0260e01b7bffffffffffffffffffffffffffffffffffffffffffffffffffffffff1916817bffffffffffffffffffffffffffffffffffffffffffffffffffffffff1916149150506117cb565b600190505b949350505050565b600073ffffffffffffffffffffffffffffffffffffffff168273ffffffffffffffffffffffffffffffffffffffff1603611842576040517f08c379a000000000000000000000000000000000000000000000000000000000815260040161183990612d5f565b60405180910390fd5b61184b81611556565b1561188b576040517f08c379a000000000000000000000000000000000000000000000000000000000815260040161188290612dcb565b60405180910390fd5b611897600083836115c2565b6001600360008473ffffffffffffffffffffffffffffffffffffffff1673ffffffffffffffffffffffffffffffffffffffff16815260200190815260200160002060008282546118e79190612752565b92505081905550816002600083815260200190815260200160002060006101000a81548173ffffffffffffffffffffffffffffffffffffffff021916908373ffffffffffffffffffffffffffffffffffffffff160217905550808273ffffffffffffffffffffffffffffffffffffffff16600073ffffffffffffffffffffffffffffffffffffffff167fddf252ad1be2c89b69c2b068fc378daa952ba7f163c4a11628f55a4df523b3ef60405160405180910390a46119a8600083836115c7565b5050565b6000808273ffffffffffffffffffffffffffffffffffffffff163b119050919050565b6000604051905090565b600080fd5b600080fd5b60007fffffffff0000000000000000000000000000000000000000000000000000000082169050919050565b611a18816119e3565b8114611a2357600080fd5b50565b600081359050611a3581611a0f565b92915050565b600060208284031215611a5157611a506119d9565b5b6000611a5f84828501611a26565b91505092915050565b60008115159050919050565b611a7d81611a68565b82525050565b6000602082019050611a986000830184611a74565b92915050565b600081519050919050565b600082825260208201905092915050565b60005b83811015611ad8578082015181840152602081019050611abd565b60008484015250505050565b6000601f19601f8301169050919050565b6000611b0082611a9e565b611b0a8185611aa9565b9350611b1a818560208601611aba565b611b2381611ae4565b840191505092915050565b60006020820190508181036000830152611b488184611af5565b905092915050565b6000819050919050565b611b6381611b50565b8114611b6e57600080fd5b50565b600081359050611b8081611b5a565b92915050565b600060208284031215611b9c57611b9b6119d9565b5b6000611baa84828501611b71565b91505092915050565b600073ffffffffffffffffffffffffffffffffffffffff82169050919050565b6000611bde82611bb3565b9050919050565b611bee81611bd3565b82525050565b6000602082019050611c096000830184611be5565b92915050565b611c1881611bd3565b8114611c2357600080fd5b50565b600081359050611c3581611c0f565b92915050565b60008060408385031215611c5257611c516119d9565b5b6000611c6085828601611c26565b9250506020611c7185828601611b71565b9150509250929050565b600080600060608486031215611c9457611c936119d9565b5b6000611ca286828701611c26565b9350506020611cb386828701611c26565b9250506040611cc486828701611b71565b9150509250925092565b600060208284031215611ce457611ce36119d9565b5b6000611cf284828501611c26565b91505092915050565b611d0481611b50565b82525050565b6000602082019050611d1f6000830184611cfb565b92915050565b611d2e81611a68565b8114611d3957600080fd5b50565b600081359050611d4b81611d25565b92915050565b60008060408385031215611d6857611d676119d9565b5b6000611d7685828601611c26565b9250506020611d8785828601611d3c565b9150509250929050565b600080fd5b600080fd5b7f4e487b7100000000000000000000000000000000000000000000000000000000600052604160045260246000fd5b611dd382611ae4565b810181811067ffffffffffffffff82111715611df257611df1611d9b565b5b80604052505050565b6000611e056119cf565b9050611e118282611dca565b919050565b600067ffffffffffffffff821115611e3157611e30611d9b565b5b611e3a82611ae4565b9050602081019050919050565b82818337600083830152505050565b6000611e69611e6484611e16565b611dfb565b905082815260208101848484011115611e8557611e84611d96565b5b611e90848285611e47565b509392505050565b600082601f830112611ead57611eac611d91565b5b8135611ebd848260208601611e56565b91505092915050565b60008060008060808587031215611ee057611edf6119d9565b5b6000611eee87828801611c26565b9450506020611eff87828801611c26565b9350506040611f1087828801611b71565b925050606085013567ffffffffffffffff811115611f3157611f306119de565b5b611f3d87828801611e98565b91505092959194509250565b600067ffffffffffffffff821115611f6457611f63611d9b565b5b611f6d82611ae4565b9050602081019050919050565b6000611f8d611f8884611f49565b611dfb565b905082815260208101848484011115611fa957611fa8611d96565b5b611fb4848285611e47565b509392505050565b600082601f830112611fd157611fd0611d91565b5b8135611fe1848260208601611f7a565b91505092915050565b60008060408385031215612001576120006119d9565b5b600061200f85828601611c26565b925050602083013567ffffffffffffffff8111156120305761202f6119de565b5b61203c85828601611fbc565b9150509250929050565b6000806040838503121561205d5761205c6119d9565b5b600061206b85828601611c26565b925050602061207c85828601611c26565b9150509250929050565b7f4e487b7100000000000000000000000000000000000000000000000000000000600052602260045260246000fd5b600060028204905060018216806120cd57607f821691505b6020821081036120e0576120df612086565b5b50919050565b7f4552433732313a20617070726f76616c20746f2063757272656e74206f776e6560008201527f7200000000000000000000000000000000000000000000000000000000000000602082015250565b6000612142602183611aa9565b915061214d826120e6565b604082019050919050565b6000602082019050818103600083015261217181612135565b9050919050565b7f4552433732313a20617070726f76652063616c6c6572206973206e6f7420746f60008201527f6b656e206f776e6572206e6f7220617070726f76656420666f7220616c6c0000602082015250565b60006121d4603e83611aa9565b91506121df82612178565b604082019050919050565b60006020820190508181036000830152612203816121c7565b9050919050565b7f4552433732313a2063616c6c6572206973206e6f7420746f6b656e206f776e6560008201527f72206e6f7220617070726f766564000000000000000000000000000000000000602082015250565b6000612266602e83611aa9565b91506122718261220a565b604082019050919050565b6000602082019050818103600083015261229581612259565b9050919050565b7f4552433732313a20696e76616c696420746f6b656e2049440000000000000000600082015250565b60006122d2601883611aa9565b91506122dd8261229c565b602082019050919050565b60006020820190508181036000830152612301816122c5565b9050919050565b7f4552433732313a2061646472657373207a65726f206973206e6f74206120766160008201527f6c6964206f776e65720000000000000000000000000000000000000000000000602082015250565b6000612364602983611aa9565b915061236f82612308565b604082019050919050565b6000602082019050818103600083015261239381612357565b9050919050565b7f57726f6e6720616d6f756e74206f662066756e64732073656e74000000000000600082015250565b60006123d0601a83611aa9565b91506123db8261239a565b602082019050919050565b600060208201905081810360008301526123ff816123c3565b9050919050565b600081905092915050565b600061241c82611a9e565b6124268185612406565b9350612436818560208601611aba565b80840191505092915050565b7f7370616365626561725f00000000000000000000000000000000000000000000600082015250565b6000612478600a83612406565b915061248382612442565b600a82019050919050565b6000819050919050565b6124a96124a482611b50565b61248e565b82525050565b7f2e6a736f6e000000000000000000000000000000000000000000000000000000600082015250565b60006124e5600583612406565b91506124f0826124af565b600582019050919050565b60006125078285612411565b91506125128261246b565b915061251e8284612498565b60208201915061252d826124d8565b91508190509392505050565b7f4f776e61626c653a206e6577206f776e657220697320746865207a65726f206160008201527f6464726573730000000000000000000000000000000000000000000000000000602082015250565b6000612595602683611aa9565b91506125a082612539565b604082019050919050565b600060208201905081810360008301526125c481612588565b9050919050565b7f4552433732313a207472616e736665722066726f6d20696e636f72726563742060008201527f6f776e6572000000000000000000000000000000000000000000000000000000602082015250565b6000612627602583611aa9565b9150612632826125cb565b604082019050919050565b600060208201905081810360008301526126568161261a565b9050919050565b7f4552433732313a207472616e7366657220746f20746865207a65726f2061646460008201527f7265737300000000000000000000000000000000000000000000000000000000602082015250565b60006126b9602483611aa9565b91506126c48261265d565b604082019050919050565b600060208201905081810360008301526126e8816126ac565b9050919050565b7f4e487b7100000000000000000000000000000000000000000000000000000000600052601160045260246000fd5b600061272982611b50565b915061273483611b50565b925082820390508181111561274c5761274b6126ef565b5b92915050565b600061275d82611b50565b915061276883611b50565b92508282019050808211156127805761277f6126ef565b5b92915050565b7f4f776e61626c653a2063616c6c6572206973206e6f7420746865206f776e6572600082015250565b60006127bc602083611aa9565b91506127c782612786565b602082019050919050565b600060208201905081810360008301526127eb816127af565b9050919050565b7f4552433732313a20617070726f766520746f2063616c6c657200000000000000600082015250565b6000612828601983611aa9565b9150612833826127f2565b602082019050919050565b600060208201905081810360008301526128578161281b565b9050919050565b600060408201905081810360008301526128788185611af5565b90506128876020830184611cfb565b9392505050565b7f4552433732313a207472616e7366657220746f206e6f6e20455243373231526560008201527f63656976657220696d706c656d656e7465720000000000000000000000000000602082015250565b60006128ea603283611aa9565b91506128f58261288e565b604082019050919050565b60006020820190508181036000830152612919816128dd565b9050919050565b7f45524337323155524953746f726167653a2055524920736574206f66206e6f6e60008201527f6578697374656e7420746f6b656e000000000000000000000000000000000000602082015250565b600061297c602e83611aa9565b915061298782612920565b604082019050919050565b600060208201905081810360008301526129ab8161296f565b9050919050565b60008190508160005260206000209050919050565b60006020601f8301049050919050565b600082821b905092915050565b600060088302612a147fffffffffffffffffffffffffffffffffffffffffffffffffffffffffffffffff826129d7565b612a1e86836129d7565b95508019841693508086168417925050509392505050565b6000819050919050565b6000612a5b612a56612a5184611b50565b612a36565b611b50565b9050919050565b6000819050919050565b612a7583612a40565b612a89612a8182612a62565b8484546129e4565b825550505050565b600090565b612a9e612a91565b612aa9818484612a6c565b505050565b5b81811015612acd57612ac2600082612a96565b600181019050612aaf565b5050565b601f821115612b1257612ae3816129b2565b612aec846129c7565b81016020851015612afb578190505b612b0f612b07856129c7565b830182612aae565b50505b505050565b600082821c905092915050565b6000612b3560001984600802612b17565b1980831691505092915050565b6000612b4e8383612b24565b9150826002028217905092915050565b612b6782611a9e565b67ffffffffffffffff811115612b8057612b7f611d9b565b5b612b8a82546120b5565b612b95828285612ad1565b600060209050601f831160018114612bc85760008415612bb6578287015190505b612bc08582612b42565b865550612c28565b601f198416612bd6866129b2565b60005b82811015612bfe57848901518255600182019150602085019450602081019050612bd9565b86831015612c1b5784890151612c17601f891682612b24565b8355505b6001600288020188555050505b505050505050565b600081519050919050565b600082825260208201905092915050565b6000612c5782612c30565b612c618185612c3b565b9350612c71818560208601611aba565b612c7a81611ae4565b840191505092915050565b6000608082019050612c9a6000830187611be5565b612ca76020830186611be5565b612cb46040830185611cfb565b8181036060830152612cc68184612c4c565b905095945050505050565b600081519050612ce081611a0f565b92915050565b600060208284031215612cfc57612cfb6119d9565b5b6000612d0a84828501612cd1565b91505092915050565b7f4552433732313a206d696e7420746f20746865207a65726f2061646472657373600082015250565b6000612d49602083611aa9565b9150612d5482612d13565b602082019050919050565b60006020820190508181036000830152612d7881612d3c565b9050919050565b7f4552433732313a20746f6b656e20616c7265616479206d696e74656400000000600082015250565b6000612db5601c83611aa9565b9150612dc082612d7f565b602082019050919050565b60006020820190508181036000830152612de481612da8565b905091905056fe68747470733a2f2f657468657265756d2d626c6f636b636861696e2d646576656c6f7065722e636f6d2f323032322d30362d6e66742d74727566666c652d686172646861742d666f756e6472792f6e6674646174612fa2646970667358221220ae88f9b83d9814c646477da347abc2f94dc539a3bbd314df496b5818a323047464736f6c63430008110033",
  "immutableReferences": {},
  "source": "// SPDX-License-Identifier: MIT\npragma solidity ^0.8.4;\n\nimport \"@openzeppelin/contracts/token/ERC721/ERC721.sol\";\nimport \"@openzeppelin/contracts/token/ERC721/extensions/ERC721URIStorage.sol\";\nimport \"@openzeppelin/contracts/access/Ownable.sol\";\nimport \"@openzeppelin/contracts/utils/Counters.sol\";\n\nimport \"@ganache/console.log/console.sol\";\n\ncontract Spacebear is ERC721, ERC721URIStorage, Ownable {\n    using Counters for Counters.Counter;\n\n    Counters.Counter private _tokenIdCounter;\n\n    constructor() ERC721(\"Spacebear\", \"SBR\") {}\n\n    function _baseURI() internal pure override returns (string memory) {\n        return\n            \"https://ethereum-blockchain-developer.com/2022-06-nft-truffle-hardhat-foundry/nftdata/\";\n    }\n\n    function buyToken() public payable {\n        uint256 tokenId = _tokenIdCounter.current();\n\n        console.log(\"DEEEEPANSHU\", tokenId);\n        require(0.1 ether == msg.value, \"Wrong amount of funds sent\");\n\n        _tokenIdCounter.increment();\n        _safeMint(msg.sender, tokenId);\n    }\n\n    function safeMint(address to, string memory uri) public onlyOwner {\n        uint256 tokenId = _tokenIdCounter.current();\n        _tokenIdCounter.increment();\n        _safeMint(to, tokenId);\n        _setTokenURI(tokenId, uri);\n    }\n\n    // The following functions are overrides required by Solidity.\n\n    function _burn(uint256 tokenId)\n        internal\n        override(ERC721, ERC721URIStorage)\n    {\n        super._burn(tokenId);\n    }\n\n    function tokenURI(uint256 tokenId)\n        public\n        pure\n        override(ERC721, ERC721URIStorage)\n        returns (string memory)\n    {\n        return\n            string(\n                abi.encodePacked(_baseURI(), \"spacebear_\", tokenId, \".json\")\n            );\n    }\n}\n",
  "sourcePath": "/Users/deepanshusingh/nft-project/truffle/contracts/Spacebears.sol",
  "compiler": {
    "name": "solc",
    "version": "0.8.17+commit.8df45f5f.Emscripten.clang"
  },
  "schemaVersion": "3.4.10",
  "updatedAt": "2022-10-27T13:00:45.555Z",
  "networkType": "ethereum",
  "devdoc": {
    "kind": "dev",
    "methods": {
      "approve(address,uint256)": {
        "details": "See {IERC721-approve}."
      },
      "balanceOf(address)": {
        "details": "See {IERC721-balanceOf}."
      },
      "getApproved(uint256)": {
        "details": "See {IERC721-getApproved}."
      },
      "isApprovedForAll(address,address)": {
        "details": "See {IERC721-isApprovedForAll}."
      },
      "name()": {
        "details": "See {IERC721Metadata-name}."
      },
      "owner()": {
        "details": "Returns the address of the current owner."
      },
      "ownerOf(uint256)": {
        "details": "See {IERC721-ownerOf}."
      },
      "renounceOwnership()": {
        "details": "Leaves the contract without owner. It will not be possible to call `onlyOwner` functions anymore. Can only be called by the current owner. NOTE: Renouncing ownership will leave the contract without an owner, thereby removing any functionality that is only available to the owner."
      },
      "safeTransferFrom(address,address,uint256)": {
        "details": "See {IERC721-safeTransferFrom}."
      },
      "safeTransferFrom(address,address,uint256,bytes)": {
        "details": "See {IERC721-safeTransferFrom}."
      },
      "setApprovalForAll(address,bool)": {
        "details": "See {IERC721-setApprovalForAll}."
      },
      "supportsInterface(bytes4)": {
        "details": "See {IERC165-supportsInterface}."
      },
      "symbol()": {
        "details": "See {IERC721Metadata-symbol}."
      },
      "transferFrom(address,address,uint256)": {
        "details": "See {IERC721-transferFrom}."
      },
      "transferOwnership(address)": {
        "details": "Transfers ownership of the contract to a new account (`newOwner`). Can only be called by the current owner."
      }
    },
    "version": 1
  },
  "userdoc": {
    "kind": "user",
    "methods": {},
    "version": 1
  }
}